:020000040000FA
:1000000010020020C1000000810500007105000001
:10001000FFFFFFFFFFFFFFFFFFFFFFFFFFFFFFFFF0
:10002000FFFFFFFFFFFFFFFFFFFFFFFF8505000052
:10003000FFFFFFFFFFFFFFFF83050000330100000C
:1000400035010000350100003501000035010000D8
:1000500035010000350100003501000035010000C8
:1000600035010000FFFFFFFF3501000035010000F2
:10007000350100003501000035010000FFFFFFFFE2
:10008000FFFFFFFF250200003501000035010000E1
:100090003501000035010000350100003501000088
:1000A0003501000035010000350100003501000078
:1000B0003501000035010000350100003501000068
:1000C0001D4880471D4880471D4800471D4801695D
:1000D000002908D14169002905D18169002902D18F
:1000E000C169002909D01848C1680901090D002912
:1000F0000ED005290CD006290AD0BFF34F8F134824
:100100001349016013491248C860BFF34F8FFEE7DF
:100110000E4801680E48884200D070470E480F49CB
:1001200001600A480E4901607047FEE7FEE7FEE7FE
:10013000FEE7FEE7FEE70000CD000000E905000055
:100140006501000000030840800108400000002015
:100150000400FA0500ED00E0008108400100000005
:10016000000000000448854600F01EF800480047E3
:1001700091080000C046C0461002002030B50B4672
:10018000014600202022012409E00D46D5409D4271
:1001900005D31D469540491B2546954040191546F7
:1001A000521E002DF1DC30BD064C0125064E05E047
:1001B000E36807CC2B430C3C98471034B442F7D388
:1001C000FFF7D4FF3809000058090000F0B5964643
:1001D0000A461349C000461800230025FF20984016
:1001E0002C46104216D00020012199408C46114621
:1001F000C1406746394206D087000F21B9400D4300
:100200007146B9400C43401C0828F0D33068A8431D
:10021000204330600833361D082BDEDDF0BD0000C2
:100220002020024010B5084800F014F80748007874
:10023000002805D00122D103054800F04AF910BD7D
:10024000012000F085F910BD00600740000000208B
:1002500000400B404168490849004160BFF34F8F9F
:10026000704710B5072001210022400489030123B3
:1002700000F070F810BD000070B5184D0446686BB2
:100280004607760F00F02EF815492060330000F085
:10029000E3FA081405070714140E1114606000E057
:1002A0006160296A6068052909D3400908E00120D6
:1002B000C003F3E77D200002F0E70020EEE7C8402E
:1002C000A060A96A4903490F072902D0C840E0602D
:1002D00070BD0321FFF752FFF9E7000000800840DE
:1002E00000127A000C490868C869C20F4868400AC1
:1002F000C007C00F0ED00948002A0BD18869C00D75
:100300000007000F00D110208969044A4902890FB3
:100310005043C840704700000080084000127A0037
:100320001FB541090A4A89008A1800212E2800D1E8
:100330000221C006C00E1268032383401A40C24047
:1003400054186846FFF798FF029804B0E04010BDCB
:1003500038800840F0B5084F7C6AFD6A3E6B8443E4
:100360008D439643002B02D004430D4316437C6219
:10037000FD623E63F0BD00000080084010B50446F9
:10038000002000F00DF9012000F00AF905494C6049
:1003900048680028FCD1801E00F002F9002000F01F
:1003A000FFF810BD00000020002A026801D00A43B7
:1003B00000E08A4302607047F0B5002425462346DA
:1003C000CE0706D05E001746B7403C430327B74030
:1003D0003D4349085B1C102BF2D34169A94341619D
:1003E000416921434161F0BD70B5012214032146EA
:1003F0001046FFF7EBFE012202210320FFF7E6FE85
:10040000104D002221462846FFF7CEFF0E4E002257
:1004100002213046FFF7C8FF02222146284600F09D
:1004200043F802221146304600F03EF801222146F0
:10043000284600F00BF801220221304600F006F8B1
:1004400070BD000000200B4000600B40002A426895
:1004500001D00A4300E08A434260704770B5012230
:10046000950329460220FFF7B1FE0122D40321465D
:100470000220FFF7ABFE022101220846FFF7A6FE8D
:100480002946084D01222846FFF78EFF012221460A
:100490002846FFF789FF012202212846FFF784FF43
:1004A00070BD000000400B40002A08D0012A09D08E
:1004B00082688A438260C2688A43C26070478268E9
:1004C0000A43F7E7C2680A43C26082688A438260CF
:1004D0007047002A01D04162704781627047000076
:1004E000F8B5054613481349465D680010310C5AAB
:1004F00008460D38475DB0000C3108580090304672
:1005000000F086F93A4621463046FFF75FFE28465E
:1005100000F012F8214602220098FFF7C5FF21469D
:1005200001220098FFF748FF214601220098FFF7BB
:100530003BFFF8BDF4080000044A4100515A103A4C
:10054000105C80001C3210584162704704090000A2
:100550000649095C8A0005491C3189580A6A034B1F
:1005600040001033185A42400A627047F4080000F5
:10057000024801680029FCD07047000008000020F4
:100580007047704770470000042204490428086936
:1005900002D09043086170471043FBE700E000E0A1
:1005A0000749002806D00128086906D04008400005
:1005B0000861704700208861704701221043F7E707
:1005C00000E000E0044902220028086901D010433D
:1005D00000E090430861704700E000E00149486195
:1005E0007047000000E000E0F0B539491020C86015
:1005F000384A012010603849086B402528430863B9
:100600003648002344158668272EFCD100E044605C
:100610004668B605FBD500E043604668B605FBD4E6
:100620001360486A0322920290434862486801229C
:10063000D202104348608868C008C007FBD04868F1
:10064000C008C000C01C4860486B4007400F03282A
:10065000FAD1234A1068C008C000401C10600B6229
:100660004868A043486008689615304308604868A9
:1006700017153843486088688008C007FBD0086BAE
:10068000A84308630868B043086003200006886137
:1006900048682043486088684008C007FBD010685D
:1006A000C008C000801C10600B624868C008C00011
:1006B000401C4860486B4007400F0128FAD1106881
:1006C0001021084310601068090208431060F0BD53
:1006D00000810840008308400080084000A10640D7
:1006E0000002084070B504460D46C88889886268D3
:1006F00008432989184B1A40114308436989084364
:10070000606001208007844206D11820FFF708FEB0
:100710002968FFF733FD60621048844206D11A2031
:10072000FFF7FEFD2968FFF729FD60620C4884424F
:1007300006D11C20FFF7F4FD2968FFF71FFD60625A
:100740000848844206D11E20FFF7EAFD2968FFF71A
:1007500015FD606270BD0000FCE0FFFF000004407A
:100760000010004000100440002AC26801D00A4373
:1007700000E08A43C260704710238B404168002A22
:1007800001D0194300E09943416070473EB5002411
:10079000012021210004490201232246FFF7DAFD4E
:1007A000002220211748FFF77FFE0622102100209B
:1007B000FFF70CFD062220210020FFF707FDE120B6
:1007C00040020090FF200194029401306946888025
:1007D000CC800C814C810C4C2046FFF783FF0B4AE8
:1007E000A1011160012205212046FFF7BDFF012272
:1007F00000212046FFF7C0FF012211462046FFF7E7
:10080000BBFF3EBD00000B400000044000E100E0E3
:100810001CB50022009201216B46019219541878F0
:100820004904C007C00B88435978C907890B08439E
:100830000121890488439978C907490B084301219C
:10084000C9048843D9780123C907090B084301214A
:100850008903FFF77FFD1CBD30B47446641E257804
:10086000641CAB4200D21D46635D5B00E31830BCE4
:10087000184702E008C8121F08C1002AFAD17047C1
:100880007047002001E001C1121F002AFBD1704710
:10089000FFF7E7FCFFF7A8FDFFF7E0FDFFF776FFA6
:1008A0000020FFF71DFE0120FFF71AFE0220FFF7D0
:1008B00017FE0420C043FFF767FE0C487D21890125
:1008C0000068FFF75BFCFFF789FE0120FFF77AFE67
:1008D000074C0020FFF73CFE0120FFF739FE022005
:1008E000FFF736FE2046FFF749FDF2E70C00002037
:1008F000881300000202020101010103030101014A
:100900000C01020000400080020000100200040000
:1009100000000B4000200B4000400B4000600B40EB
:100920000000000000000000000004400000100073
:10093000060000002000060058090000000000200A
:10094000100000007208000068090000100000207C
:10095000000200008208000000000000000000000B
:0809600000000000006CDC0245
:04000005000000C136
:00000001FF
