:020000040000FA
:1000000010020020C10000007D070000450700002D
:10001000FFFFFFFFFFFFFFFFFFFFFFFFFFFFFFFFF0
:10002000FFFFFFFFFFFFFFFFFFFFFFFF8107000054
:10003000FFFFFFFFFFFFFFFF7F070000330100000E
:1000400035010000350100003501000035010000D8
:1000500035010000350400003501000035010000C5
:1000600035010000FFFFFFFF3501000035010000F2
:10007000350100003501000035010000FFFFFFFFE2
:10008000FFFFFFFF51020000810200003501000068
:100090003501000035010000350100003501000088
:1000A0003501000035010000350100003501000078
:1000B0003501000035010000350100003501000068
:1000C0001D4880471D4880471D4800471D4801695D
:1000D000002908D14169002905D18169002902D18F
:1000E000C169002909D01848C1680901090D002912
:1000F0000ED005290CD006290AD0BFF34F8F134824
:100100001349016013491248C860BFF34F8FFEE7DF
:100110000E4801680E48884200D070470E480F49CB
:1001200001600A480E4901607047FEE7FEE7FEE7FE
:10013000FEE7FEE7FEE70000CD00000085070000B7
:100140006501000000030840800108400000002015
:100150000400FA0500ED00E0008108400100000005
:10016000000000000448854600F01EF800480047E3
:10017000E9080000C046C0461002002030B50B461A
:10018000014600202022012409E00D46D5409D4271
:1001900005D31D469540491B2546954040191546F7
:1001A000521E002DF1DC30BD064C0125064E05E047
:1001B000E36807CC2B430C3C98471034B442F7D388
:1001C000FFF7D4FF84090000A409000010B5002245
:1001D000072802D901220838C0B29300054A9A18AC
:1001E000136880000F248440A343814019431160A9
:1001F00010BD000000200240F0B596460A461349A3
:10020000C000461800230025FF2098402C461042CD
:1002100016D00020012199408C461146C140674606
:10022000394206D087000F21B9400D437146B940CD
:100230000C43401C0828F0D33068A84320433060AA
:100240000833361D082BDEDDF0BD00002020024003
:1002500010B5084800F02CF807480078002805D0B1
:100260000122D103054800F01FFA10BD012000F063
:1002700059FA10BD006007400000002000400B400C
:1002800010B5094800F014F808494878012809D148
:100290008878042801D2401C00E000208870C0B299
:1002A00000F076F810BD000000700740000000204C
:1002B0004168490849004160BFF34F8F7047000013
:1002C00010B50020012212040123014600F09EF81F
:1002D0000D480A210068FFF751FF0C4C01462046EB
:1002E00000F051F80021204600F04FF8012120468F
:1002F00000F03FF80121204600F032F801200449C7
:100300004004086010BD00000C00002000600740A1
:1003100000E100E010B50020012252040123014653
:1003200000F074F80B4800680B4C8108204600F080
:100330002AF80021204600F028F80121204600F08C
:1003400018F80121204600F00BF801200349800431
:10035000086010BD0C0000200070074000E100E0C4
:1003600004220029016801D0114300E0914301609B
:1003700070470029016802D00122114301E04908B9
:10038000490001607047C16070478160704700009C
:1003900070B50125AD03174C6E00012805D0022869
:1003A00010D0032816D0012200E000222946204662
:1003B00000F07AF901223146204600F075F9012259
:1003C000022113E000223146204600F06DF901229F
:1003D0002946F1E700220221204600F065F90122BA
:1003E0003146204600F060F901222946204600F0FF
:1003F0005BF970BD00400B4010B5072001210022C1
:1004000040048903012300F001F810BDF0B5084F46
:100410007C6AFD6A3E6B84438D439643002B02D079
:1004200004430D4316437C62FD623E63F0BD000051
:100430000080084010B50121022000F021F80B4C8B
:10044000002804D0022000F013F8012009E0002168
:10045000022000F015F8002804D0022000F008F86F
:100460000020606000F076F910BD00000000002060
:100470000121814001484160816070474040024055
:1004800010B5084A536801248440234207D092687B
:10049000C240D007C00F884201D0012010BD00200B
:1004A00010BD0000404002400179027AC9071207DE
:1004B0001143C28800681143024A8000801801601D
:1004C00070470000004002400122054B824018683E
:1004D000012902D09043186070471043FBE70000E9
:1004E000404002403EB50024032101208903C0049E
:1004F00001232246FFF78AFF012204210320FFF790
:100500007BFE104D01220421284600F085F80222CE
:100510000421284600F0AEF803210220FFF756FE22
:100520000220009069460C71CC8004200872684655
:10053000FFF7BAFF01210220FFF7C6FF0249202082
:1005400008603EBD00600B4000E100E0002A026848
:1005500001D00A4300E08A4302607047F0B50024EE
:1005600025462346CE0706D05E001746B7403C43DB
:100570000327B7403D4349085B1C102BF2D3416968
:10058000A9434161416921434161F0BD70B5012238
:10059000140321461046FFF72FFE012202210320FB
:1005A000FFF72AFE012204210320FFF725FE184D44
:1005B000002221462846FFF7C9FF164E00220221DD
:1005C0003046FFF7C3FF002204213046FFF7BEFF8D
:1005D00002222146284600F04DF8022211463046FC
:1005E00000F048F802220421304600F043F80122CE
:1005F0002146284600F010F801220221304600F082
:100600000BF801220421304600F006F870BD00000E
:1006100000200B4000600B40002A426801D00A43D2
:1006200000E08A434260704770B501229503294675
:100630000220FFF7E1FD0122D40321460220FFF74B
:10064000DBFD022101220846FFF7D6FD2946084DB1
:1006500001222846FFF77AFF012221462846FFF7AC
:1006600075FF012202212846FFF770FF70BD0000D0
:1006700000400B40002A08D0012A09D082688A4332
:100680008260C2688A43C260704782680A43F7E7A3
:10069000C2680A43C26082688A4382607047C06948
:1006A000084000D001207047002A01D04162704705
:1006B00081627047F8B5054613481349465D6800E6
:1006C00010310C5A08460D38475DB0000C310858FF
:1006D0000090304600F0D4F83A4621463046FFF705
:1006E0008BFD284600F012F8214602220098FFF701
:1006F000C1FF214601220098FFF730FF2146012269
:100700000098FFF723FFF8BD40090000044A4100AC
:10071000515A103A105C80001C32105841627047E8
:10072000500900000649095C8A0005491C318958B6
:100730000A6A034B40001033185A42400A6270475D
:1007400040090000024801680029FCD07047000001
:100750000800002010B507494A680748012A07D059
:100760004968002903D101220221FFF79DFF10BD36
:100770000022F9E70000002000400B40704770475E
:1007800070470000F0B539491020C860384A012090
:1007900010603849086B4025284308633648002319
:1007A00044158668272EFCD100E044604668B605F3
:1007B000FBD500E043604668B605FBD41360486A89
:1007C000032292029043486248680122D2021043F9
:1007D00048608868C008C007FBD04868C008C000EF
:1007E000C01C4860486B4007400F0328FAD1234AD9
:1007F0001068C008C000401C10600B624868A0432D
:1008000048600868961530430860486817153843F3
:10081000486088688008C007FBD0086BA84308635D
:100820000868B043086003200006886148682043D8
:10083000486088684008C007FBD01068C008C00046
:10084000801C10600B624868C008C000401C4860F3
:10085000486B4007400F0128FAD110681021084367
:1008600010601068090208431060F0BD0081084064
:10087000008308400080084000A1064000020840B4
:100880001CB50022009201216B4601921954187880
:100890004904C007C00B88435978C907890B08432E
:1008A0000121890488439978C907490B084301212C
:1008B000C9048843D9780123C907090B08430121DA
:1008C0008903FFF7A3FD1CBD02E008C8121F08C181
:1008D000002AFAD170477047002001E001C1121FC1
:1008E000002AFBD170470000FFF786FDFFF74EFEA0
:1008F000FFF79AFEFFF7E4FCFFF70CFD0020FFF77F
:10090000D9FE0120FFF7D6FE0220FFF7D3FEFFF746
:10091000E9FD084D084C0126084F36030221284600
:10092000FFF7BDFE207031463846FFF7B8FE607015
:10093000F4E7000000600B400000002000200B40A6
:100940000202020101010103030101010C01020085
:1009500000400080020000100200040000000B4074
:1009600000200B4000400B4000600B4000000000E6
:10097000000000000000044000001000060000001D
:1009800020000600A4090000000000201000000064
:10099000C8080000B4090000100000200002000098
:1009A000D808000000000000000000000000000067
:0409B000006CDC02F9
:04000005000000C136
:00000001FF
